:100000000C9458000C9480000C9480000C94800098
:100010000C9480000C9480000C9480000C94800060
:100020000C9480000C9480000C9480000C94800050
:100030000C9480000C9480000C9480000C94800040
:100040000C9490020C9480000C9400030C94DA023F
:100050000C9480000C944D040C9480000C9480004F
:100060000C9432030C94800000000000250028004E
:100070002B00040404040404040402020202020229
:10008000030303030303010204081020408001025C
:1000900004081020010204081020000000080002DB
:1000A00001000003040700000000000000006304DA
:1000B00011241FBECFEFD8E0DEBFCDBF11E0A0E01E
:1000C000B1E0ECE8FAE002C005900D92A231B10770
:1000D000D9F722E0A2E1B1E001C01D92AB32B20734
:1000E000E1F710E0C8E5D0E004C02197FE010E94CE
:1000F0003E05C735D107C9F70E9490040C9444050A
:100100000C94000090E0FC01E656FF4F2491FC01A6
:10011000EA57FF4F3491FC01EE58FF4FE491EE2374
:10012000C9F0222339F0233001F1A8F4213019F16C
:10013000223029F1F0E0EE0FFF1FE859FF4FA591A3
:10014000B4918FB7F894EC91611126C030953E239D
:100150003C938FBF08952730A9F02830C9F0243090
:1001600049F7809180008F7D03C0809180008F7758
:1001700080938000DFCF84B58F7784BDDBCF84B5DB
:100180008F7DFBCF8091B0008F778093B000D2CF6E
:100190008091B0008F7DF9CF3E2BDACFAF92BF9226
:1001A000CF92DF92EF92FF920F931F93CF93DF9343
:1001B0006C017B018B01040F151FEB015E01AE1872
:1001C000BF08C017D10759F06991D601ED91FC9194
:1001D0000190F081E02DC6010995892B79F7C501C1
:1001E000DF91CF911F910F91FF90EF90DF90CF9013
:1001F000BF90AF900895FC01538D448D252F30E0C2
:10020000842F90E0821B930B541710F0CF96089523
:1002100001970895FC01918D828D981761F0A28D50
:10022000AE0FBF2FB11D5D968C91928D9F5F9F7316
:10023000928F90E008958FEF9FEF0895FC01918DCC
:10024000828D981731F0828DE80FF11D858D90E039
:1002500008958FEF9FEF0895FC01918D228D892FD6
:1002600090E0805C9F4F821B91098F7399270895BE
:10027000FC01A48DA80FB92FB11DA35ABF4F2C911B
:10028000848D90E001968F739927848FA689B78912
:100290002C93A089B1898C91837080648C93938D09
:1002A000848D981306C00288F389E02D80818F7DAC
:1002B00080830895EF92FF920F931F93CF93DF9364
:1002C000EC0181E0888F9B8D8C8D98131AC0E88992
:1002D000F989808185FF15C09FB7F894EE89FF8961
:1002E0006083E889F98980818370806480839FBFFF
:1002F00081E090E0DF91CF911F910F91FF90EF90FF
:100300000895F62E0B8D10E00F5F1F4F0F7311270E
:10031000E02E8C8D8E110CC00FB607FCFACFE88949
:10032000F989808185FFF5CFCE010E943801F1CF98
:10033000EB8DEC0FFD2FF11DE35AFF4FF0829FB7BD
:10034000F8940B8FEA89FB8980818062CFCFCF93AD
:10035000DF93EC01888D8823B9F0AA89BB89E889ED
:10036000F9898C9185FD03C0808186FD0DC00FB693
:1003700007FCF7CF8C9185FFF2CF808185FFEDCF11
:10038000CE010E943801E9CFDF91CF9108952091ED
:100390003B01260F3327331F21323105ECF4209126
:1003A0005F01FC0190E080E0243069F082E0089574
:1003B000A0913B012191AC01455E5E4FA40FB52F8A
:1003C000B11D2C930196861798F380913B01680F1D
:1003D00060933B0180E0089581E0089508958FEFD8
:1003E0009FEF08958FEF9FEF08958091140190E0A3
:1003F0009195819591090895CF93DF93CB01EA01FF
:10040000642F0E94C701CE01DF91CF910895CF9351
:10041000DF931F92CDB7DEB7698361E0CE0101960D
:100420000E94C70181E090E00F90DF91CF91089585
:1004300090E080E008951F93CF93DF9385ED809344
:10044000BC008091170190911801A0911901B09101
:100450001A010796A11DB11D23E0B695A7959795A2
:1004600087952A95D1F72091BC0024FD03C01092F6
:100470005F0152C04091170150911801609119011C
:1004800070911A01452B462B472B69F30097A10564
:10049000B10541F02AE22A95F1F700C00197A109C0
:1004A000B109E1CF80911601C1E0C0931501882305
:1004B00099F1D091B8001091BA008091BC008A7B6C
:1004C0008093BC0060E082E10E94820060E083E1F2
:1004D0000E94820010925F01C0936101109260013E
:1004E00061E082E10E94820061E083E10E9482007B
:1004F0008091B9008E7F8093B9008091B9008D7F83
:100500008093B90088E48093B80085E48093BC00B0
:100510001093BA00D093B800DF91CF911F91089546
:100520001F920F920FB60F9211242F933F938F9328
:100530009F93AF93BF9380918A0190918B01A0917B
:100540008C01B0918D013091890123E0230F2D376B
:1005500058F50196A11DB11D2093890180938A0150
:1005600090938B01A0938C01B0938D0180918501B4
:1005700090918601A0918701B09188010196A11DFB
:10058000B11D8093850190938601A0938701B0935C
:100590008801BF91AF919F918F913F912F910F90C3
:1005A0000FBE0F901F90189526E8230F0296A11DED
:1005B000B11DD2CF1F920F920FB60F9211242F931D
:1005C0003F934F935F936F937F938F939F93AF93DB
:1005D000BF93EF93FF938EE891E00E943801FF9163
:1005E000EF91BF91AF919F918F917F916F915F91AB
:1005F0004F913F912F910F900FBE0F901F90189524
:100600001F920F920FB60F9211242F938F939F93E7
:10061000EF93FF93E0919E01F0919F018081E09123
:10062000A401F091A50182FD1BC090818091A701DA
:100630008F5F8F732091A801821741F0E091A7018D
:10064000F0E0E257FE4F958F8093A701FF91EF9165
:100650009F918F912F910F900FBE0F901F90189523
:100660008081F4CF1F920F920FB60F9211242F9317
:100670003F934F935F936F937F938F939F93AF932A
:10068000BF93EF93FF938091B900887F803609F480
:100690004AC0F0F5883209F4A5C018F5803109F494
:1006A00099C0B8F4882309F4F5C0883009F492C0E1
:1006B000FF91EF91BF91AF919F918F917F916F913A
:1006C0005F914F913F912F910F900FBE0F901F9010
:1006D0001895883109F486C0803251F780935E0105
:1006E00014C0803409F49BC040F48033B9F38833DC
:1006F000F9F680935E0185ECAEC0803509F483C0C5
:10070000883509F494C0883499F60E941B02D0CF32
:10071000883909F48AC038F5883729F050F48836CA
:1007200011F0803729F683E080935F0110925D011C
:1007300055C0883809F479C0803919F0803809F03B
:10074000B7CF80915D01803208F06FC0E0915D010C
:1007500081E08E0F80935D018091BB00F0E0E35C4F
:10076000FE4F80833BC0803B39F0D0F4803A09F4DF
:1007700077C0883A09F09CCF84E080935F011092A3
:100780003C0110923B01F0E0E0E0099580913B01D3
:1007900081110FC081E080933B0110921B0109C0C1
:1007A000803C09F4A8CF883C09F4A5CF883B09F028
:1007B0007FCFE0913C0181E08E0F80933C01F0E01F
:1007C000E55EFE4F80818093BB0090913C0180915B
:1007D0003B0129C0809184018093BB0085EC80930C
:1007E000BC0066CF9091830180918201981758F5E3
:1007F000E091830181E08E0F80938301F0E0EE5958
:10080000FE4F8081E9CFE091830181E08E0F8093DC
:1008100083018091BB00F0E0EE59FE4F8083909100
:100820008301809182019817C8F285E8D8CFE091C2
:10083000830181E08E0F809383018091BB00F0E003
:10084000EE59FE4F80838091610181115ECF81E07E
:100850008093600184EA8093BC0010925F0128CFEE
:1008600085EC8093BC0010925F0180915D01803225
:1008700030F4E0915D01F0E0E35CFE4F10826091A6
:100880005D0170E08DE391E0F0E0E0E00995109209
:100890005D010ECF10925E0138CF1F920F920FB6FE
:1008A0000F9211248F939F938091780090917900FB
:1008B00090931301809312019F918F910F900FBE1F
:1008C0000F901F901895EEE8F1E01382128288EEE7
:1008D00093E0A0E0B0E084839583A683B78384E0AF
:1008E00091E09183808385EC90E09587848784EC08
:1008F00090E09787868780EC90E0918B808B81ECED
:1009000090E0938B828B82EC90E0958B848B86ECCD
:1009100090E0978B868B118E128E138E148E089515
:10092000E0919E01F0919F0182E08083E0919A0125
:10093000F0919B011082E0919C01F0919D018FEC60
:1009400080831092A601E091A201F091A30186E0BC
:100950008083E091A001F091A1018081806180837A
:10096000E091A001F091A101808188608083E091F5
:10097000A001F091A101808180688083E091A001B5
:10098000F091A10180818F7D808380E480937C0041
:100990008FEE80937A0081E080937E007894CC245F
:1009A000CA9483E0D82EE12CF12CA0911201B091D1
:1009B00013012FEF30E00E943705A70196010E9436
:1009C000E704622F8EE891E00E945A01EECF052ED7
:1009D00097FB1EF400940E94FE0457FD07D00E946E
:1009E000060507FC03D04EF40C94FE045095409588
:1009F000309521953F4F4F4F5F4F089590958095CB
:100A0000709561957F4F8F4F9F4F0895A1E21A2EE9
:100A1000AA1BBB1BFD010DC0AA1FBB1FEE1FFF1FA2
:100A2000A217B307E407F50720F0A21BB30BE40BF2
:100A3000F50B661F771F881F991F1A9469F7609539
:100A40007095809590959B01AC01BD01CF010895F3
:100A5000A29FB001B39FC001A39F700D811D1124FF
:100A6000911DB29F700D811D1124911D08950E944A
:100A70002805B7FF0895821B930B0895EE0FFF1F03
:0C0A80000590F491E02D0994F894FFCF4C
:100A8C00000000005A01CE00FB00A7012C010A0156
:020A9C001E0139
:00000001FF
