:100000000C9434000C943E000C943E000C943E0082
:100010000C943E000C943E000C943E000C943E0068
:100020000C943E000C943E000C943E000C943E0058
:100030000C943E000C943E000C943E000C943E0048
:100040000C943E000C943E000C943E000C943E0038
:100050000C943E000C943E000C943E000C94400026
:100060000C943E000C943E0011241FBECFEFD8E04C
:10007000DEBFCDBF0E9450000C946F000C940000B6
:100080001F920F920FB60F92112400B605FE06C004
:100090002D980F900FBE0F901F9018952D9AF9CFA5
:1000A000F894259A80B78F7780BF80917B00806419
:1000B00080937B0080B78F7780BF80917C00807FAA
:1000C00080937C0080917C00856080937C0080B769
:1000D0008E7F80BF80B7886080BF7894FFCFF89410
:0200E000FFCF50
:00000001FF
