:100000000C9435000C94CE010C945D000C945D00B2
:100010000C945D000C945D000C945D000C945D00EC
:100020000C945D000C945D000C945D000C945D00DC
:100030000C945D000C945D000C945D000C945D00CC
:100040000C945D000C945D000C947E010C9458019E
:100050000C945D000C94B0010C945D000C945D0058
:100060000C945D000C945D00E80111241FBECFEFDD
:10007000D8E0DEBFCDBF11E0A0E0B1E0EEE8F5E0F2
:1000800002C005900D92A631B107D9F721E0A6E193
:10009000B1E001C01D92A53BB207E1F710E0C5E356
:1000A000D0E004C02197FE010E94BF02C433D107F3
:1000B000C9F70E9415020C94C5020C940000AF927F
:1000C000BF92CF92DF92EF92FF920F931F93CF9345
:1000D000DF936C017B018B01040F151FEB015E01A7
:1000E000AE18BF08C017D10759F06991D601ED913C
:1000F000FC910190F081E02DC6010995892B79F7DB
:10010000C501DF91CF911F910F91FF90EF90DF908C
:10011000CF90BF90AF900895FC01538D448D252F53
:1001200030E0842F90E0821B930B541710F0CF9691
:10013000089501970895FC01918D828D981761F0C3
:10014000A28DAE0FBF2FB11D5D968C91928D9F5FDA
:100150009F73928F90E008958FEF9FEF0895FC01B9
:10016000918D828D981731F0828DE80FF11D858D6C
:1001700090E008958FEF9FEF0895FC01918D228DFF
:10018000892F90E0805C9F4F821B91098F73992784
:100190000895FC01A48DA80FB92FB11DA35ABF4F1C
:1001A0002C91848D90E001968F739927848FA68976
:1001B000B7892C93A089B1898C91837080648C93CA
:1001C000938D848D981306C00288F389E02D808179
:1001D0008F7D80830895EF92FF920F931F93CF93AB
:1001E000DF93EC0181E0888F9B8D8C8D98131AC072
:1001F000E889F989808185FF15C09FB7F894EE8959
:10020000FF896083E889F9898081837080648083B5
:100210009FBF81E090E0DF91CF911F910F91FF9000
:10022000EF900895F62E0B8D10E00F5F1F4F0F73A8
:100230001127E02E8C8D8E110CC00FB607FCFACF63
:10024000E889F989808185FFF5CFCE010E94C90038
:10025000F1CFEB8DEC0FFD2FF11DE35AFF4FF08234
:100260009FB7F8940B8FEA89FB8980818062CFCF9A
:10027000CF93DF93EC01888D8823B9F0AA89BB89DD
:10028000E889F9898C9185FD03C0808186FD0DC0C8
:100290000FB607FCF7CF8C9185FFF2CF808185FFE9
:1002A000EDCFCE010E94C900E9CFDF91CF91089533
:1002B0001F920F920FB60F9211242F933F934F93DB
:1002C0005F936F937F938F939F93AF93BF93EF93BE
:1002D000FF9388E191E00E94C900FF91EF91BF91E7
:1002E000AF919F918F917F916F915F914F913F91CE
:1002F0002F910F900FBE0F901F9018951F920F9285
:100300000FB60F9211242F938F939F93EF93FF9328
:10031000E0912801F09129018081E0912E01F09176
:100320002F0182FD1BC09081809131018F5F8F73FF
:1003300020913201821741F0E0913101F0E0E85E56
:10034000FE4F958F80933101FF91EF919F918F9197
:100350002F910F900FBE0F901F9018958081F4CFB2
:100360001F920F920FB60F9211242F938F939F938A
:1003700080917800909179009093170180931601F5
:100380008632924048F45B9A9F918F912F910F9003
:100390000FBE0F901F9018955B98F6CF1F920F928B
:1003A0000FB60F9211248F939F938BB198E08927FA
:1003B0008BB989B181110AC08FEE80937A009F9129
:1003C0008F910F900FBE0F901F90189587EEF5CF6D
:1003D000E8E1F1E01382128288EE93E0A0E0B0E061
:1003E00084839583A683B78384E091E0918380839F
:1003F00085EC90E09587848784EC90E097878687EA
:1004000080EC90E0918B808B81EC90E0938B828BE1
:1004100082EC90E0958B848B86EC90E0978B868BBA
:10042000118E128E138E148E0895CF93DF93CDB755
:10043000DEB7A1970FB6F894DEBF0FBECDBFE09137
:100440002801F091290182E08083E0912401F0915C
:1004500025011082E0912601F09127019FEC908305
:1004600010923001E0912C01F0912D0196E09083E3
:10047000E0912A01F0912B01908190619083E091AD
:100480002A01F0912B01908198609083E0912A01DC
:10049000F0912B01908190689083E0912A01F09176
:1004A0002B0190819F7D908317B898E09AB985B908
:1004B0001BB818B890E490937C0097EE90937A0064
:1004C0009EE390937E008093690081E08DBB7894D9
:1004D0008AE0C82ED12CE12CF12C2091160130910C
:1004E000170150E040E019A28E010F5D1F4FCA01B5
:1004F000B901A70196010E949D02605DF801629317
:100500008F01211531054105510589F7309761F0BB
:1005100001900020E9F73197AF01401B510BB80162
:1005200088E191E00E945F0042E050E062E171E00A
:1005300088E191E00E945F00D0CFA1E21A2EAA1BB1
:10054000BB1BFD010DC0AA1FBB1FEE1FFF1FA21783
:10055000B307E407F50720F0A21BB30BE40BF50B80
:10056000661F771F881F991F1A9469F76095709509
:10057000809590959B01AC01BD01CF010895EE0FD0
:0E058000FF1F0590F491E02D0994F894FFCF31
:10058E0000000000EB005F008C003801BD009B00F6
:06059E00AF000D0A000091
:00000001FF
