:020000040000FA
:100000000C9435000C941E020C945D000C945D0061
:100010000C945D000C945D000C945D000C945D00EC
:100020000C945D000C945D000C945D000C945D00DC
:100030000C945D000C945D000C945D000C945D00CC
:100040000C945D000C945D000C948C010C94660182
:100050000C945D000C94DD010C945D000C94BE01C9
:100060000C945D000C945D00650211241FBECFEF5F
:10007000D8E0DEBFCDBF11E0A0E0B1E0ECE7F6E0F4
:1000800002C005900D92A631B107D9F721E0A6E193
:10009000B1E001C01D92A73BB207E1F710E0C5E354
:1000A000D0E004C02197FE010E943603C433D1077B
:1000B000C9F70E9492020C943C030C940000AF928A
:1000C000BF92CF92DF92EF92FF920F931F93CF9345
:1000D000DF936C017B018B01040F151FEB015E01A7
:1000E000AE18BF08C017D10759F06991D601ED913C
:1000F000FC910190F081E02DC6010995892B79F7DB
:10010000C501DF91CF911F910F91FF90EF90DF908C
:10011000CF90BF90AF900895FC01538D448D252F53
:1001200030E0842F90E0821B930B541710F0CF9691
:10013000089501970895FC01918D828D981761F0C3
:10014000A28DAE0FBF2FB11D5D968C91928D9F5FDA
:100150009F73928F90E008958FEF9FEF0895FC01B9
:10016000918D828D981731F0828DE80FF11D858D6C
:1001700090E008958FEF9FEF0895FC01918D228DFF
:10018000892F90E0805C9F4F821B91098F73992784
:100190000895FC01A48DA80FB92FB11DA35ABF4F1C
:1001A0002C91848D90E001968F739927848FA68976
:1001B000B7892C93A089B1898C91837080648C93CA
:1001C000938D848D981306C00288F389E02D808179
:1001D0008F7D80830895EF92FF920F931F93CF93AB
:1001E000DF93EC0181E0888F9B8D8C8D98131AC072
:1001F000E889F989808185FF15C09FB7F894EE8959
:10020000FF896083E889F9898081837080648083B5
:100210009FBF81E090E0DF91CF911F910F91FF9000
:10022000EF900895F62E0B8D10E00F5F1F4F0F73A8
:100230001127E02E8C8D8E110CC00FB607FCFACF63
:10024000E889F989808185FFF5CFCE010E94C90038
:10025000F1CFEB8DEC0FFD2FF11DE35AFF4FF08234
:100260009FB7F8940B8FEA89FB8980818062CFCF9A
:10027000CF93DF93EC01888D8823B9F0AA89BB89DD
:10028000E889F9898C9185FD03C0808186FD0DC0C8
:100290000FB607FCF7CF8C9185FFF2CF808185FFE9
:1002A000EDCFCE010E94C900E9CFDF91CF91089533
:1002B00088E080BF80E480937B0010927A0085E024
:1002C00080937C0081E080937F0008951F920F92BD
:1002D0000FB60F9211242F933F934F935F936F9319
:1002E0007F938F939F93AF93BF93EF93FF938AE195
:1002F00091E00E94C900FF91EF91BF91AF919F9152
:100300008F917F916F915F914F913F912F910F90BE
:100310000FBE0F901F9018951F920F920FB60F925D
:1003200011242F938F939F93EF93FF93E0912A01D2
:10033000F0912B018081E0913001F091310182FD3B
:100340001BC09081809133018F5F8F7320913401A6
:10035000821741F0E0913301F0E0E65EFE4F958FA9
:1003600080933301FF91EF919F918F912F910F9087
:100370000FBE0F901F9018958081F4CF1F920F929F
:100380000FB60F9211248F939F9300B605FE0CC0F9
:1003900010921701109216012D989F918F910F9036
:1003A0000FBE0F901F90189581E090E09093170179
:1003B000809316012D9A2898F0CF1F920F920FB6B6
:1003C0000F9211242F933F934F935F936F937F93DB
:1003D0008F939F93AF93BF93EF93FF938091780098
:1003E0009091790090931901809318012091160142
:1003F00030911701232B31F486329240A0F4289AD1
:100400000E945801FF91EF91BF91AF919F918F9101
:100410007F916F915F914F913F912F910F900FBE00
:100420000F901F901895289880B780BF80917B000F
:1004300080937B0080B7806880BFE4CF1F920F92CB
:100440000FB60F9211242F933F934F935F936F93A7
:100450007F938F939F93AF93BF93EF93FF9380917D
:10046000160190911701892BC9F485B191E0892774
:1004700085B983B1811123C080B780BF80917B0093
:1004800080937B0080B7806880BF80E480937C008D
:100490008FEE80937A0090937E007894FF91EF9195
:1004A000BF91AF919F918F917F916F915F914F918C
:1004B0003F912F910F900FBE0F901F90189587EED0
:1004C00080937A000E945801E9CFEAE1F1E01382BB
:1004D000128288EE93E0A0E0B0E084839583A68347
:1004E000B78384E091E09183808385EC90E09587E9
:1004F000848784EC90E09787868780EC90E0918BEE
:10050000808B81EC90E0938B828B82EC90E0958BDA
:10051000848B86EC90E0978B868B118E128E138ED7
:10052000148E0895CF93DF93CDB7DEB7A1970FB6A2
:10053000F894DEBF0FBECDBFE0912A01F0912B01F0
:1005400012E01083E0912601F09127011082E091E2
:100550002801F09129018FEC808310923201E09103
:100560002E01F0912F0186E08083E0912C01F09123
:100570002D01808180618083E0912C01F0912D011B
:10058000808188608083E0912C01F0912D01808131
:1005900080688083E0912C01F0912D0180818F7D16
:1005A000808317B81AB881E284B915B81BB818B897
:1005B0000E9458011093690081E08DBB78948AE015
:1005C000C82ED12CE12CF12C209118013091190169
:1005D00050E040E019A28E010F5D1F4FCA01B90122
:1005E000A70196010E941403605DF80162938F01D8
:1005F000211531054105510589F7309761F00190CA
:100600000020E9F73197AF01401B510BB8018AE197
:1006100091E00E945F0042E050E062E171E08AE117
:1006200091E00E945F00D0CFA1E21A2EAA1BBB1B53
:10063000FD010DC0AA1FBB1FEE1FFF1FA217B307AE
:10064000E407F50720F0A21BB30BE40BF50B661FC4
:10065000771F881F991F1A9469F760957095809588
:1006600090959B01AC01BD01CF010895EE0FFF1FD6
:100670000590F491E02D0994F894FFCF000000005C
:10068000EB005F008C003801BD009B00AF000D0A3D
:02069000000068
:107E0000112484B714BE81FFF0D085E080938100F7
:107E100082E08093C00088E18093C10086E0809377
:107E2000C20080E18093C4008EE0C9D0259A86E02C
:107E300020E33CEF91E0309385002093840096BBD3
:107E4000B09BFECF1D9AA8958150A9F7CC24DD24C4
:107E500088248394B5E0AB2EA1E19A2EF3E0BF2EE7
:107E6000A2D0813461F49FD0082FAFD0023811F036
:107E7000013811F484E001C083E08DD089C08234E0
:107E800011F484E103C0853419F485E0A6D080C0E4
:107E9000853579F488D0E82EFF2485D0082F10E0AE
:107EA000102F00270E291F29000F111F8ED06801E7
:107EB0006FC0863521F484E090D080E0DECF843638
:107EC00009F040C070D06FD0082F6DD080E0C81688
:107ED00080E7D80618F4F601B7BEE895C0E0D1E017
:107EE00062D089930C17E1F7F0E0CF16F0E7DF06D8
:107EF00018F0F601B7BEE89568D007B600FCFDCFD4
:107F0000A601A0E0B1E02C9130E011968C91119780
:107F100090E0982F8827822B932B1296FA010C0160
:107F200087BEE89511244E5F5F4FF1E0A038BF0790
:107F300051F7F601A7BEE89507B600FCFDCF97BE46
:107F4000E89526C08437B1F42ED02DD0F82E2BD052
:107F50003CD0F601EF2C8F010F5F1F4F84911BD097
:107F6000EA94F801C1F70894C11CD11CFA94CF0C13
:107F7000D11C0EC0853739F428D08EE10CD085E9AC
:107F80000AD08FE07ACF813511F488E018D01DD067
:107F900080E101D065CF982F8091C00085FFFCCF94
:107FA0009093C60008958091C00087FFFCCF809118
:107FB000C00084FD01C0A8958091C6000895E0E648
:107FC000F0E098E1908380830895EDDF803219F02E
:107FD00088E0F5DFFFCF84E1DECF1F93182FE3DFCA
:107FE0001150E9F7F2DF1F91089580E0E8DFEE27F6
:047FF000FF270994CA
:027FFE00040479
:00000001FF
