:100000000C9434000C94A3000C9446000C9446000D
:100010000C9446000C9446000C9446000C94460048
:100020000C9446000C9446000C9446000C94460038
:100030000C9446000C9446000C9446000C94460028
:100040000C9446000C9446000C94CD000C94460091
:100050000C9446000C9446000C9446000C94460008
:100060000C9446000C94460011241FBECFEFD8E03C
:10007000DEBFCDBF21E0A0E0B1E001C01D92A630FF
:10008000B207E1F70E949A000C945D010C94000005
:1000900082E08093690081E08DBB78940895DC0153
:1000A000CB01880F991FAA1FBB1F880F991FAA1F7A
:1000B000BB1F9C01AD01220F331F441F551F220F90
:1000C000331F441F551F60E074E284EF90E00E94EC
:1000D0003B01BA01A9014150510961097109BB27CE
:1000E000A72F962F852F8093C5004093C4001092B0
:1000F000C000E1ECF0E08081886080838EE0809336
:10010000C200789408959091C00095FFFCCF809331
:10011000C60008959091000182E089278093000134
:10012000882321F085B1806285B9089585B18F7DDE
:1001300085B908950E94480060E875E280E090E08B
:100140000E944F00FFCF1F920F920FB60F92112403
:100150002F933F934F935F936F937F938F939F93CF
:10016000AF93BF93EF93FF930E948A0080910001A9
:10017000809301010E948300FF91EF91BF91AF91A5
:100180009F918F917F916F915F914F913F912F91AF
:100190000F900FBE0F901F9018951F920F920FB6E1
:1001A0000F9211242F933F934F935F936F937F93FD
:1001B0008F939F93AF93BF93EF93FF936091C6008C
:1001C00070E080E090E00E94FE0060930201709376
:1001D00003018093040190930501FF91EF91BF917A
:1001E000AF919F918F917F916F915F914F913F91CF
:1001F0002F910F900FBE0F901F901895E89409C093
:1002000097FB3EF490958095709561957F4F8F4F49
:100210009F4F9923A9F0F92F96E9BB279395F6955F
:10022000879577956795B795F111F8CFFAF4BB0FDD
:1002300011F460FF1BC06F5F7F4F8F4F9F4F16C041
:10024000882311F096E911C0772321F09EE8872FCB
:10025000762F05C0662371F096E8862F70E060E087
:100260002AF09A95660F771F881FDAF7880F969500
:10027000879597F90895A1E21A2EAA1BBB1BFD01D1
:100280000DC0AA1FBB1FEE1FFF1FA217B307E40775
:10029000F50720F0A21BB30BE40BF50B661F771FCD
:1002A000881F991F1A9469F76095709580959095AD
:0E02B0009B01AC01BD01CF010895F894FFCF72
:00000001FF
